:100000000C94F8080C9420090C9420090C942009F5
:100010000C9420090C9420090C9420090C942009BC
:100020000C9420090C9420090C94141D0C94861D2A
:100030000C9420090C9420090C9420090C9420099C
:100040000C9420090C9420090C9420090C9420098C
:100050000C9420090C9420090C9420090C946A201B
:100060000C9420090C9420090C9420090C9420096C
:100070000C9420090C9420090C9420090C9420095C
:100080000C9420090C9420090C9420090C9420094C
:100090000C9420090C9420090C9420090C9420093C
:1000A0000C9420090C9420090C9420091C29202967
:1000B0000B291229F528FB28012905294D29242976
:1000C000AE2C4652414341534153544500594F557C
:1000D000204641494C45440020534F4E49444F204F
:1000E0002000204944494F4D4120200020494E49DD
:1000F00043494F20200020534F554E4420202000DC
:100100004C414E4755414745200020205354415211
:1001100054202000F0F89C8E8783878E9CF8F00096
:1001200000FEFF0303030303070EFCF80000FEFFBD
:100130000303030303070EFCF80000FFFF000000A9
:1001400000000000FFFF0000FEFF8383838383C75E
:10015000EE7C380000F8FC0E07030303070EFCF8E2
:1001600000003F7FE0C08080C0E07F3FFFFF0101D3
:100170000101010101FFFF0000FFFF0C0C0C0C1C32
:100180003E77E3C100007FFFC0C0C0C0C0E0703F49
:100190001F00001F3F70E0C0C0C0E0703F1F0000A4
:1001A0007FFFC1C1C1C1C1E3773E1C00001F3F708A
:1001B000E0C0C0C0E0703F1F000000000001FFFF72
:1001C00001000000D5F08D14A1C881CFD9F1AF2076
:1001D000000000F0080890902020E0F0F0F8F8F817
:1001E000F8F00F00F00F60980565970F1F1F3F3F55
:1001F0003F00F804048444484848F8FCFCFEFEFE36
:10020000FE0007F80007F8001EE1011FE7070F0FC7
:100210000F1010000000000000000000000000A00F
:100220009080000000000000000000000000070FA8
:100230000D0D070000000000000000000000C0E8F5
:100240006860C00000000000000000000000010322
:10025000020201000070FCFEFEFEFEFEFCFEE40059
:1002600000800000000000317F3F1F1F1F3F7E7E87
:100270002703000070FCFEFEFEFEFEFCFE7C7060AC
:1002800000000000000001010F3F7F3F3F7F3E1E46
:100290000E1C0000000070F87CFEFEFEFEFE7C3CA2
:1002A00078300000000000003E7F3F0F1F3F1F0618
:1002B00000000000000070F87CFEFEFCFEFE7C3CAE
:1002C00078300000000000003E7F3F0F1F3F1F06F8
:1002D000000000000070FCFEFEFEFEFEFCFEE400DE
:1002E00000800000000000317F7F1F1F1F7F7E3EC7
:1002F0000F1F0000000070F87CFEFEFEFEFE7CF882
:1003000070000000000000003E7F3F0F3F7F3E0472
:100310000E00000000C0E0F0F0F0F0E0F0A00000FF
:100320000080000003076F7F7F7F7F1F5F7F7F1E3E
:1003300007030000000000000000000000000000B3
:10034000000000C0E0F0F0F8F8FCFCFCFEFEFEFE51
:10035000FEFEFC00000000000000808080808080A5
:10036000000000E0F0F8F8FCFEFFFFFFFFFFFFFFDA
:10037000FFFEFC10100000004078CCFC0454A844A0
:1003800000000000000000000000301A0D0E0616EC
:100390003C2002000000004078CCFCF4C48810200F
:1003A00000000000000000000000000A3D060E34BE
:1003B00018000400000000000070087CC8B8C87C69
:1003C00008083000000000000000003E0E040E1F70
:1003D00006000000000000000070083070787030E7
:1003E00000083000000000000000003E0F030D1F59
:1003F00006000000000000004078CCFC0454A84433
:1004000000000000000000000000301A0D0E06166B
:100410003C000A1C000000004078CCFC0454A844B6
:1004200000000080000000000000301A0D0E0616CB
:100430003C00050300000000007008307078703048
:1004400008700000000000000000003E0F030D3E99
:1004500000040E000000000000700830707870305A
:1004600008700000000000000000003E0D030F3E79
:1004700000040E00000000000070087CC8B8C87CB2
:1004800008700000000000000000003E0E040E3E58
:1004900000000C00000000000070087CC8B8C87C98
:1004A00008700000000000000000003E0E040E3E38
:1004B0000000060000000000C0E0E02060C0200056
:1004C00000000000000000020324576E65020502D0
:1004D0001800020000000000C0E0E020A040200062
:1004E00000000000000000026364472802050208C3
:1004F00016000200000000000000000000000000E4
:1005000000000000000080208010200824802A00C5
:1005100014400A261C00000000000000000000003B
:10052000000000000000401020481084080004A0D3
:1005300002061284200000000000000080808080FD
:100540008080000000F018A80834360522552A02E1
:10055000365E5DA2CC01150405080B0B050F1117C3
:100560000F19141E0227102807360A36123D073DC0
:1005700010050605110D1F0E1A110913281A071C64
:10058000181C292817321E36223A103E2C70F0F81B
:10059000FC3F1F0F0E0038787E7E1E1C0000183CAA
:1005A0007E7E3C1800081C1C3E3E1C1C083C7EFF46
:1005B000FFFFFF7E3C7EFFFFFFFFFFFF7E08003F47
:1005C0007F3F00080020103F7F3F10200070F87C24
:1005D0003E3F3F1E0C383C7CFCFCFC7C1C00F8F8C9
:1005E000F8F8FC7C1C0E1E7E7C7C7E1E0E38387853
:1005F00078787838382F079896CE49272FA53A393A
:1006000002D3CB6C721DE6B395CD554EC94E8E33D9
:10061000CD00C2003F3F70AE9CFC5457577D5DB784
:10062000FAAA4FA5AA52B7AB6455AA2A5595BBDCC6
:10063000A573B5BA577DD557ADEE55ABDBD53A7737
:10064000C9F4B292B5AB55552A95AA64E7D695EC94
:100650005C252F9956763467974A2AE79CEAAFAE15
:10066000E472B9CD6ED3415BE9F43ABD5EAFD74ECB
:1006700056B272DB55B90A816E1BB752CB6C369BF2
:10068000546EB9DD6ED7E37BB9DC6EB7DBADB24A31
:10069000872BF7329B4E662B9BCFE6E34D6F95A4DD
:1006A00052335675557555444EAFDD3BC595546E66
:1006B000B9CD2A77FB65E8AAF8A34E6F2F55BB5A30
:1006C000A795555872DE212A5B95ABAAABCA55E5B2
:1006D0002A62BE2D61E5AA7215A727CA954DFDE5D0
:1006E000D2CA2A29DF1167F3D95C55369FAD6C2831
:1006F000B2B5FCBFDC565965DDADD792CEA34FA194
:100700008B4A86A5B2844ABB739F532EB9CC46B997
:10071000744AC97BD5AB5EF5AAB74A3A27C7513AA6
:100720009FEC5475AAFAAB53A9AB54E7B2B339EFB7
:10073000F0E7BCC350D5555557E5E3B37E3C29AD32
:100740004ADEF557ABAA72ADA453529DFAD4A73E28
:10075000F5AD6EA7E4769D4E662B9BAD5C5557A715
:100760007A79AD9452D97C365BB93AEF944E67F3FF
:1007700021E9248A08B395AD5C652B5795AB5C5590
:10078000EA7295BC5C652B57D9E472A9EC57A72A8D
:100790005795AB5C55AE7255B9EA5455577F752ADB
:1007A000D595CD56AE7255B9EA54AAAB569D4A7D41
:1007B000AFFA5BDDAA56B7DC29BBAC65ADAA5655CE
:1007C0005DB5AAEAAA55ADAABA6A557555D5555769
:1007D0000808D8A8DE6B312D331EEFF7FBEBFBDBEF
:1007E000F7EF0020601008060400000010300C082D
:1007F0000000001824424A241800081414222A1465
:10080000140852AD765DBA6EB55A9BFEEE7BDF766C
:10081000FFDB143D5291523D1408502D5291522D40
:100820005020C7812854567EB9C7003E1C080000DE
:100830000000382C64C48CCC741C00F888C898CC98
:10084000741C0E1A764C4C761A0E28287848487874
:10085000282821DE12DE12DE21FF43BD25BD25BD85
:1008600043FF833944922AA21CC1FF5F2F17CB8517
:1008700093C73F5F9146A0D0E9F77F3F109AAD6CD8
:10088000C84AA793C94B5DD55D5DBD6A754B25957B
:1008900054524965B7DB4B66B3E94AE6F3612EDC97
:1008A0002557471467CCB1C51755E4C954EE73EB0F
:1008B0004B55F65295BDD4B6234B666B2B15266D62
:1008C000BB2A77B9CBFD2A5DC9D225D3952C5D32E1
:1008D000DDAECA5DEE72BFDAF6AAEADB55EE5E2D3A
:1008E000D115BA96D9DA3925DD2B7567B3D9289792
:1008F000D9749CD96D3A95AD6C2E99CC5572BBDDEF
:10090000A6934ACA51AC7CB5AABAAA6C65238C28B6
:10091000AE5447958C3F57D5958D39B238979D9CED
:10092000294E5C3AF5EF6A57BBB22F95D4EF6A5760
:10093000BBB22F9554FFAE76B52BFB5259A54AA7F3
:10094000546D97A84DBA6D369BAB555557ADAAF26D
:10095000F9BCF3D1E5951B5D31E5F395CC7595AA0E
:100960005DEA764E8EC03096CFD6F252D57DEAAA99
:10097000AAAB5655B9CA55E52AA74AD5F2B2F9E845
:10098000924BA7AEFA72AADC65B7BB5A95BA9C82A5
:10099000BDE4BA9225AB64BA64A954C9D225ABAA06
:1009A000AA54A597C4D975B852D96857EA78F7CA36
:1009B000EFF7B99455EAAEAA52EE72B5BBD47DDD1D
:1009C0005FD595EAAAAEEAAAEAAAAECA5565F3418E
:1009D00047D97C788B2EBAE8621BDDE14FAE4B56CF
:1009E000A96A75BA6495AA92A54B56A9AA52A54BB5
:1009F00056A9AA52A52B5525AB54A54B565555A91A
:100A00004A2F99435B55AEAAABAA5C3955B9CA5572
:100A1000E56A5595ABFB5A55AEAE6A552B4797AD77
:100A20005C652B5795ABEAAAEAAA5CD55555AED6BC
:100A3000BF7255DDABEE3FAD1C04142C1E6DD050C3
:100A400076A99C53723BEEC264B6B25575555D559E
:100A500057D5555D512D95DB812E5264CA49659954
:100A6000AA921D1A974E2ABB8E4A29D6889297EAD7
:100A7000545D5557E52A5BD97C4452A5A40E83D515
:100A800055AD6A555FCA29B574DFA94E752957ABB4
:100A90005257AD5A393998A8F456492595BC9C74DB
:100AA000F2724A5E4E39E59CBABFAA2B57D555B9AA
:100AB000AA565DD54B2A25A5B2EB9C52ABCA656BF5
:100AC00055B9AA555557A9DB29A6E8A20BF4140A73
:100AD000010001F600EC00E200D8002E2E2E592075
:100AE0004855424F2050415A002E2E2E5920454C39
:100AF00020424F5351554520465545204C494245CB
:100B00005241444F2E2E2E002E2E2E414E44205464
:100B10004845524520574153205045414345002EFA
:100B20002E2E414E442054484520464F52455354A2
:100B3000205741532052454C45415345442E2E2EBB
:100B400000554E41204C4C415645004E45434553BF
:100B5000495441530041204B455900594F55204EAF
:100B600045454400554E41204C4C415645204E458C
:100B7000434553495441524153004C4120534F4C3B
:100B8000454441442059004F4E45204B455920597A
:100B90004F55204E454544004C4F4E454C494E451F
:100BA000535320414E440054452048415241204C6B
:100BB00049425245004C4120534F4C45444144006A
:100BC00057494C4C204D414B4520594F55204652DA
:100BD0004545004C4F4E454C494E4553530020501F
:100BE000524553494F4E412041200020205052454C
:100BF000535320412020200003081F051F1F151BF1
:100C00001F11111F110E1F15111F05011F111D1F8F
:100C1000041F001F0010101F1F041B1F10101F06B1
:100C20001F1F011F1F111F1F05071F311F1F051B3E
:100C300017151D011F011F101F0F100F1F0C1F1B69
:100C4000041B071C071915131F111F001F001D157A
:100C50001711151F07041F17151D1F151D01011F53
:100C60001F151F17151F0017000010000B09090B97
:100C7000060808060A101100071213000000000001
:100C8000000000000B09090B060808060B09090BF8
:100C90000608080600000000000000000A0001002D
:100CA000070000000B09090B060808060B09090BD1
:100CB000060808060000020A000000070000000AFB
:100CC000000100070B09090B060808060A00000AC4
:100CD000070000070A00000A070000070A101100B9
:100CE000071213000B09090B060808060000000094
:100CF000000000000A03000A070000070A00020AB9
:100D0000070000070B09090B060808060A00000087
:100D1000070003000A00000A070000070B09090B7F
:100D2000060808060A000200070000000000000A8A
:100D3000000000070A00030A07000007101410143F
:100D400012151215101405051215050505051014C8
:100D50000505121510141014121512151014101484
:100D600012151215050510140505121510140505A8
:100D70001215050510141014121512151014101464
:100D800012151215050505050501050505050503DF
:100D9000050505051014101412151215101405057B
:100DA0001215050210140505121505050505101488
:100DB000050512150505101403051215161716174B
:100DC0001819181916170505181905050505161718
:100DD00005051819161716171819181916171617C2
:100DE00018191819050516170505181916170505F8
:100DF00018190505161716171819181916171617A2
:100E00001819181905050505050305050505050249
:100E100005050505161716171819181916170505CB
:100E200018190505161705051819050505051617DE
:100E30000505181905051617050518190C0D0C0DD3
:100E40000E0F0E0F0C0D05050E0F050505050C0DFB
:100E500005050E0F0C0D0C0D0E0F0E0F0C0D0C0DCD
:100E60000E0F0E0F05050C0D05050E0F0C0D0505DB
:100E70000E0F05050C0D0C0D0E0F0E0F0C0D0C0DAD
:100E80000E0F0E0F050505050502050505050501F3
:100E9000050505050C0D0C0D0E0F0E0F0C0D0505AF
:100EA0000E0F05010C0D05050E0F050505050C0DB2
:100EB00005050E0F05050C0D01050E0F05050505B1
:100EC00005050505050505050505050501050C03D1
:100ED000030303030B0908020001030307000000DA
:100EE000000402090707080002000B0D070A0402AC
:100EF0000C0305070A0402020202020216161A185F
:100F00001E2222222626161D242626261726191DD5
:100F1000242626232618161D212323251C17261BCD
:100F2000261B1B1B1C261A1A261C1B1B2612100E06
:100F300012260E2611121210260F26261426100E27
:100F400026260E12260F1514121226131311150F32
:100F50001111130F0402020202020202003060D3D8
:100F60000BC00BB50BA70B980B870B7A0B640B5BB5
:100F70000B550B4B0B410B1F0B080BE90ADB0AEB64
:100F80000BDE0B1D1E9D9E1F209FA02122A1A223D0
:100F900024A3A42526A5A6272628A6101214151AD0
:100FA000091D291F18321F3E2D0615030F02030FBE
:100FB00009041D07031D0E042E0903390705391501
:100FC00004011207020D08060F071910092A090863
:100FD000340D093E0B063E1009022819090A1911A1
:100FE0000E0F15091418290A39200F3A160A3C2742
:100FF000190A19140C2514141B14162114221E147A
:101000002D22142E121433191409000212062A2E4E
:10101000143C24320E2F000808FFFFFFFFFFFFFFE4
:10102000FFFFFFFBE7FBFFFFFFFFFFFFF7EFFFFF08
:10103000FFFFFFF7EFF7FFFFFFFFFFEFF7F7EFFF10
:10104000FFFFEFFFFFFDDFFFFEB300FF55280000AD
:10105000B3FF00FF55280000FF9BAB9B8B9BAB9B16
:10106000AB3757371737573757FF00EE4EAE0E00E6
:10107000FF3700EE4EAE0E0037FF7FBF8FB75375C0
:101080008D2505C9638F1F3F7FFFFCFBE5D3CC1384
:101090004A810402C8C0E2F8FCFF3F4FD7EBBB7D9A
:1010A000DDEDBD7DDBEBB74F3FFFF8E5DA819A2739
:1010B0001A011A279A81DAE5F8EDBD29D323070F23
:1010C0003F010A258288C1E0F8ABD57B0FD36103CD
:1010D0000F7BCFA351038F7FFFFFE3DCAB1D8B2082
:1010E0008AC0E33ED52A80C8E33F67578F7F076BEE
:1010F000B37FAF9F6F7F578B77BFBF5F7F5FBF5F50
:101100007F0F6F07B7835BC1EDFF00F5FF0FE5F6BB
:10111000F6FF1FEFEFAFEFAFEFFFF0EFEEEBEA0FF1
:10112000EACF03E9ADFDF5FD01CF006F6A7F5C7E7C
:1011300000CF03ED01FFFFFFFFCF006F00FEFFFFB9
:10114000FFFFFF3F43BDF6725EFFE1DCB9AA7357B4
:1011500077FFFF7FBFFFBF5FBFD7E3DBE7BF7FFF47
:10116000FF380000081C04101010100000340000AC
:101170000C1000000612080B000202020100090414
:1011800000000102020000052400100105240101F5
:10119000010424020605240600010705810310004E
:1011A0004009040100020A00000007050202400095
:1011B0000007058302400000040309041201000235
:1011C000EF02014041233680000101020301417218
:1011D0006475696E6F204C4C430041726475626F98
:1011E0007900401840300102040810204080022D90
:1011F00011241FBECFEFDAE0DEBFCDBF11E0A0E0CB
:10120000B1E0E2EBF1E602C005900D92AC34B1071B
:10121000D9F727E0ACE4B1E001C01D92A930B207D4
:10122000E1F718E0C8EFD8E004C02197FE010E9462
:10123000CC30C73FD107C9F70E941F220C94D7308A
:101240000C9400004F925F927F928F929F92AF9288
:10125000BF92CF92DF92EF92FF920F931F93CF93A3
:10126000DF9300D0CDB7DEB7DC016A3348F46033DA
:1012700068F4613271F06E3209F0E9C025E20AC00B
:1012800061546A3108F0E3C0262F04C02AEE260F0D
:1012900001C024E21496CC9014974C2D0C2C000C19
:1012A000550BE8EFFBE0D490E9EFFBE0E491ED2C87
:1012B000F12C222309F4C8C081E090E03E2F377062
:1012C00011F480E090E03E2F369536953695830FE9
:1012D000911D8E9D80018F9D100D9E9D100D1124DE
:1012E0002003B001219F700D11246650744F5701E7
:1012F000A40EB51E1A141B040CF0A9C015968C90F0
:101300001597082C000C990894012F5F3F4FC901D5
:101310008E0F911D181619060CF099C02034310556
:101320000CF095C06115710509F491C0822F87708A
:10133000890137FF02C0095F1F4FF3E0159507953C
:10134000FA95E1F7F02F37FF04C0882311F0FFEF83
:10135000F00F57FF05C022273327241B350B02C08F
:1013600020E030E000E8A016B10424F090E89C19D9
:10137000792E01C07D2C721A0F2F0F2E000C110B2D
:10138000FF3F1CF4C02EC09401C0C12CAA24A3941A
:101390009E2F977009F4A12CE695E695E695EA0D47
:1013A0000E0F111D0930110514F0E8E0EF1B1C2D84
:1013B0001F0F5901DC9CA00CB11C11246A0D7B1D70
:1013C000CC24C394D12C082E02C0CC0CDD1C0A9472
:1013D000E2F700E81003400D511D1124240F351FC2
:1013E00022593D4F9E2E9F0E911689F1A9012B0186
:1013F000042D061B071510F5F20104910C9D5001F8
:101400000D9DB00C1124BA82A98217FD04C0FA0107
:101410000081A02AA082882359F017304CF45A0189
:10142000F0E8AF0EB11CF50180800A810829008325
:10143000FFEF4F1A5F0A4F5F5F4FDACF1F5F6E0DEE
:101440007F1D20583F4FD0CF6AEF7BE050CF1496DE
:101450008C9114978C5F14968C9381E090E00F90A0
:101460000F90DF91CF911F910F91FF90EF90DF9040
:10147000CF90BF90AF909F908F907F905F904F9054
:101480000895089580E090E008954F925F926F92E2
:101490007F928F929F92AF92BF92CF92EF920F93D3
:1014A0001F93CF93DF93182F110F110FC82FD0E088
:1014B0005E018FEFA81AB80AAA0CBB1CAA0CBB1CB1
:1014C0004A0103E0880C991C0A95E1F7CC0FDD1F57
:1014D000CC0FDD1F3B0193E0660C771C9A95E1F77A
:1014E00022E0422E512C212F30E02A153B050CF032
:1014F0003FC0F901ED57F04F0491013820F000583A
:10150000CC24C39401C0C12C2C1B3D0B809129021B
:1015100090912A02F401E81BF90BC901B2010E9463
:10152000B830BC01A3E0660F771FAA95E1F76E0FF4
:101530007F1F80912D0290912E02A301481B590B11
:10154000CA0137FF02C02F5F3F4F35952795D9015C
:1015500053E0AA0FBB1F5A95E1F7E12C20E030E0E1
:1015600047E150E18A0F9B1F0E94561A1F5FBBCFB5
:10157000DF91CF911F910F91EF90CF90BF90AF90DF
:101580009F908F907F906F905F904F9008950F93F2
:1015900000E029E040E363E170E088E290E00E942F
:1015A000171AEEE6F6E088E2848384E18583E09111
:1015B0003902F0E0EE0FFF1FE158F04F8591949152
:1015C0000F910C94EB18CF92DF92EF92FF920F9352
:1015D0001F93CF93DF93ECE4F1E034EFC32E31E0BF
:1015E000D32EEC01C40FD11D8B01020F111D2081E0
:1015F000318112161306ACF4428153817901A8E0BF
:10160000EA0EF11C8E159F0564F42C173D074CF46F
:101610009A01285F3F4F621773071CF44017510768
:1016200034F03496CE16DF0611F780E001C081E079
:10163000DF91CF911F910F91FF90EF90DF90CF90AE
:1016400008950F931F93CF93DF93A0913C02B0E0D6
:101650001197FD01ED58FE4EE4918B0177FF02C01A
:101660000D5F1F4F159507951595079598012E0F3E
:10167000311DF901EF59FE4EE491EC01CE1BD10969
:1016800040912B0250912C02D7FF0AC0CA0157FD8E
:101690000796F3E095958795FA95E1F7C80FD91F5E
:1016A000CA0157FD0796E3E095958795EA95E1F71E
:1016B000C817D90754F0CA0157FD079633E095952E
:1016C00087953A95E1F7C81BD90BCA0157FD0F96CC
:1016D00024E0959587952A95E1F7C817D90734F442
:1016E0009E01D7FF18C02D5F3F4F15C09A0157FFCD
:1016F00002C0215F3F4FF4E035952795FA95E1F759
:10170000C21BD30B8C1B9D0BEC0121979E01D7FFB5
:1017100002C02D5F3F4F3595279535952795FD01E3
:10172000E45AF04FA491049FF001059FF00D149F1F
:10173000F00D1124F7FDFF9696E0F595E7959A9543
:10174000E1F7E20FF31FEA0FF11DE453F14F24918B
:1017500027FD20582223D1F004E010E0CB01B8018E
:101760000E94B830FC01EE0FFF1FEE0FFF1FCE01ED
:10177000B8010E94B830E80FF91F30E1239FE00D57
:10178000F11D1124E45AF34F849101C080E0DF91F0
:10179000CF911F910F9108950F931F93CF93DF93D4
:1017A00097FD07968C0193E0159507959A95E1F7BB
:1017B0009B0177FF02C0295F3F4FE90183E0D59588
:1017C000C7958A95E1F7BE01C8010E94210B282F19
:1017D00030E026503109253F3105E8F080913C0288
:1017E0008230B9F4C8014C97029720F4CE010C97CF
:1017F000029788F0C8018C97029758F4CE0144975D
:10180000029748F0BE016E50710981E062307105A7
:1018100018F080E001C081E0DF91CF911F910F911E
:101820000895CF92DF92EF92FF920F931F93CF9381
:10183000DF93EC018B016B0182E0C80ED11C7E01AD
:1018400082E0E80EF11CB601C7010E94CC0B8111A9
:1018500014C02496B601CE010E94CC0B81110DC09C
:101860000C5F1F4FB801C7010E94CC0B811105C04E
:10187000B801CE010E94CC0B811181E0DF91CF91A4
:101880001F910F91FF90EF90DF90CF9008958F926E
:101890009F92AF92BF92CF92DF92EF92FF920F93FF
:1018A0001F93CF93DF93E82FF0E0EE0FFF1FEE5171
:1018B000F94F008128E0029F80011124C18168E076
:1018C000C69FE0011124BE01C8010E94110C8111C4
:1018D00081C028E048E0BE01C8010E94E30A8111EE
:1018E00079C040913C02242F30E021503109EEE0D4
:1018F0002E9F902D1124FEE04F9FA0011124E29F06
:10190000B001E39F700D1124ECE1E29FD001E39F51
:10191000B00D1124780128E0E20EF11C6E01F8E010
:10192000CF0ED11C292F30E0241735079CF5F90183
:10193000E550FE4FE081EE2359F1F901E60FF71F64
:10194000EE0FFF1FEB5AFA4FE491F8E0EF9F5001C2
:101950001124F901EE0FFF1FEA0FFB1FEA5AFA4F9D
:10196000E491450128E0820E911C0815190584F4C4
:10197000AE14BF046CF428E0E29FF00111249F0133
:10198000285F3F4FC217D3071CF4EC15FD0514F177
:101990009F5FC8CF2091370230913802A901405F84
:1019A0005F4F04171507C4F4A801485F5F4F241761
:1019B000350794F42091350230913602A901405F39
:1019C0005F4FC417D50744F4AE01485F5F4F24173B
:1019D000350714F481E01EC09801295D31092731D3
:1019E0003105A0F49E01295531092731310590F3C5
:1019F000093511407CF09E01295931092731310503
:101A000048F3C956D109679728F4E4CF003791E02D
:101A1000190774F3DF91CF911F910F91FF90EF9011
:101A2000DF90CF90BF90AF909F908F900895CF920E
:101A3000DF92EF92FF920F931F93CF93DF938C016E
:101A4000EB017C0184E0E81AF1086B0192E0C91A0D
:101A5000D108B601C7010E94110C81116FC090918D
:101A60003C02923009F06AC098012E5D310925319F
:101A7000310530F49E012C5531092531310578F0BE
:101A80009FE6E91691E0F9068CF40E35E1E01E07B9
:101A90006CF09E012C5931092531310510F481E09B
:101AA0004DC0205D3F4F25313105C8F39091310283
:101AB000992361F098012E5531402531310530F4DC
:101AC0009E012C5631092531310548F3A09134028D
:101AD000B0E06CE070E140E050E0FB013197E49150
:101AE000F8E0EF9F90011124FB019491F9013E96DB
:101AF000EE16FF068CF42F5F3F4F2017310764F47A
:101B0000F8E09F9F90011124F9013E96CE16DF0662
:101B10001CF4C217D30744F44F5F5F4F6E5F7F4FD3
:101B200046305105D1F60AC09D01042E02C03595FC
:101B300027950A94E2F720FDEFCFB1CFDF91CF9147
:101B40001F910F91FF90EF90DF90CF900895CF926B
:101B5000DF92EF92FF920F931F93CF93DF936091E9
:101B60003502709136026C5F7F4F80913702909101
:101B7000380204960E94CC0B811160C0609135023E
:101B8000709136026C5F7F4F8091370290913802DE
:101B90000C960E94CC0B811151C06091350270915E
:101BA0003602645F7F4F809137029091380204962D
:101BB0000E94CC0B811142C06091350270913602B7
:101BC000645F7F4F80913702909138020C960E949B
:101BD000CC0B811133C034C04F5F5F4F6E5F7F4FBE
:101BE0004630510509F44AC0FB013197E49198E071
:101BF000E99F90011124FB019491F9013F96EE16A3
:101C0000FF0654F72D5F3F4F2A173B072CF7F8E0EC
:101C10009F9F90011124F9013F96CE16DF06E4F64E
:101C20002D5F3F4F2C173D07BCF69801042E02C0D4
:101C3000359527950A94E2F720FDCECF81E01EC0AE
:101C400090913C029230D1F4A0913702B0913802C9
:101C50007D0192E0E90EF11C5096C0913502D091C1
:101C600036026E01E2E0CE0ED11C60960091340285
:101C700010E06CE070E140E050E0B6CFDF91CF9132
:101C80001F910F91FF90EF90DF90CF900895CF922A
:101C9000DF92EF92FF920F931F93CF93DF93062F64
:101CA000EA01122FBC01990F880B990B0E949F2FFC
:101CB0006B017C0120E030E040E05FE30E942B30CC
:101CC00020E034E244E759E40E94902EA7019601F7
:101CD0000E94FC2E0E946E2F6150710900933B02FE
:101CE00000E4009390007093990060939800BE0107
:101CF000DD0F880B990B0E949F2F6B017C0120E068
:101D000030E040E05FE30E942B3020E034E244E723
:101D100057E40E94902EA70196010E94FC2E0E947B
:101D20006E2F6150710910933A020093C0007093B6
:101D3000BF006093D100DF91CF911F910F91FF9071
:101D4000EF90DF90CF90089580E00E94CA180E9423
:101D5000C1180E94BB2083FFFCCF0C94C1183F9296
:101D60004F925F926F927F928F929F92AF92BF92AB
:101D7000CF92DF92EF92FF920F931F93CF93DF9357
:101D8000B82E0E94C11800E02CE246E76AE070E03D
:101D900085E090E00E94171AE5EFF2E093E791509A
:101DA00021F0808180618193FACFE5E7F5E093E748
:101DB000915021F0808188608193FACFCCE0D0E00F
:101DC00041E0BE0187E090E00E94CB202196C43321
:101DD000D105B1F7CCE0D0E041E0BE0188E790E06A
:101DE0000E94CB202196C433D105B1F724E0B21272
:101DF00004C00E94C9191AE001C010E0CB2DD0E048
:101E00002197CC0FDD1FCC0FDD1F04E1011B80E308
:101E1000A82EA11A8CEF782E80913902FE01E80FCE
:101E2000F11DE80FF11DEE0FFF1FE15AF04F8590F5
:101E30009490C4010E940D2E472D9C014203C001C5
:101E4000439F900D112480589F4F969587958093BE
:101E5000720600937306C4010E94EB1889E491E0B6
:101E60000E94D9182196025F0A11D6CF84E0B812D9
:101E700053C186EF9FEF9093ED068093EC06F12C13
:101E8000D8E0CFE043E0D42E5FE0A52EB12C88242B
:101E90008394912C7AE0672E712C0E94BB2083FDE5
:101EA0003BC101E02CE140E864E270E080E090E0BA
:101EB0000E94171A4D2E512C28E1421A5108312C3C
:101EC000832D6D2D0E9498300AE1090FC12CE12C61
:101ED00020E030E047E150E168E370E0C2010E9499
:101EE000561A339438E0430E511C43E13412E8CFC4
:101EF000D11101C0D8E18091770680FFD1500091C7
:101F0000F801CC24C394E02E23E532E043E753E00C
:101F100060E370E084E090E00E94561A80917706BA
:101F200090917806B5010E94A430892B79F48091B4
:101F3000F8019091F901019729F41092F90110929A
:101F4000F80104C09092F9018092F8010091F80123
:101F50000D5E6C2F70E06E5D7F4FC12CE12C20E098
:101F600030E040ED57E08DE190E00E94561A8091FC
:101F7000770690917806B3010E94A430892B29F44A
:101F8000112311F0CF5F01C0C150CA3021F0CF3012
:101F900019F410E001C011E08091EC069091ED067B
:101FA000F1105DC08897E4F46AE570E080E090E0AD
:101FB0000E941620DC01CB014E96A11DB11D80931D
:101FC000E20662E170E080E090E00E941620DC0111
:101FD000CB018496A11DB11D8093E306FF24F394E9
:101FE0008091770680FD09C08091EC069091ED0606
:101FF00001979093ED068093EC060091F801809193
:1020000000078170C82E39E0E32EE00E045F609176
:10201000EE067091EF062DE835E040ED57E0809137
:10202000EC069091ED060E94561A67E270E080E09F
:1020300090E00E941620DC01CB010196A11DB11D8C
:10204000823039F0833009F05FC0809100078E7FC5
:1020500003C08091000781608093000755C0009104
:10206000F8012BE0E22EE00E025F6091EE06709127
:10207000EF06C12C2DE835E040ED57E00E94561ADE
:102080002091EC063091ED068091E20690E0281751
:10209000390734F42F5F3F4F3093ED062093EC0661
:1020A0002091EC063091ED068217930734F421500D
:1020B00031093093ED062093EC062091EE06309125
:1020C000EF064091E30650E02417350734F42F5F04
:1020D0003F4F3093EF062093EE062091EE063091AD
:1020E000EF064217530734F4215031093093EF06BD
:1020F0002093EE06FF24F3942091EC063091ED0638
:102100002817390709F4F12C80E00E94CA180E94B0
:10211000AD1B8823E1F3C1CEDF91CF911F910F91C9
:10212000FF90EF90DF90CF90BF90AF909F908F90F7
:102130007F906F905F904F903F900C94A40E2F92E1
:102140003F924F925F926F927F928F929F92AF9247
:10215000BF92CF92DF92EF92FF920F931F93CF9394
:10216000DF93A0902902B0902A02B7FE03C017E0C7
:10217000A10EB11CD3E0B594A794DA95E1F735012F
:1021800013E0660C771C1A95E1F780912902909173
:102190002A0297FD0796C3E095958795CA95E1F7C2
:1021A0000896E0913C028A159B050CF497C0F0E07C
:1021B000EE58FE4E8491E501B7FC2396FE01F5959D
:1021C000E795F595E795E80FF11DEF59FE4EC4919F
:1021D000D0E080902D0290902E0297FE03C027E061
:1021E000820E911CF3E095948794FA95E1F724010F
:1021F000A3E0440C551CAA95E1F780912D02909123
:102200002E0297FD0796E3E095958795EA95E1F70D
:102210004096881599050CF45AC0B501C4010E9476
:10222000210B882399F120912B0230912C028C16DE
:102230009D067CF0A90137FF02C0415F5F4F74E04B
:10224000559547957A95E1F74C0F5D1F84169506D5
:10225000ECF0A90137FF02C0415F5F4F64E0559584
:1022600047956A95E1F74C175D0794F437FF02C074
:10227000215F3F4F44E0359527954A95E1F7AE0140
:10228000421B530B91E0841695061CF490E001C0AC
:1022900091E02091290230912A02B301621B730B55
:1022A000E0912D02F0912E02C92EE12C082F20E0A2
:1022B00030E047E150E1C2018E1B9F0B0E94561A8D
:1022C0005FEF851A950A88E0480E511C96CFAFEF54
:1022D000AA1ABA0AB8E06B0E711C57CFE13029F088
:1022E000E23031F406E2CEE005C002E0CDE202C009
:1022F00000E0C0E010E0D0E0A801BE0181E00E9453
:10230000450A809137029091380223E0CC0FDD1FFF
:102310002A95E1F7AC014E5F5F4F9E01225F3F4F70
:102320004217530714F540968C179D07F4F08091DF
:10233000350290913602B3E0000F111FBA95E1F714
:10234000AC014E5F5F4F9801225F3F4F421753072A
:1023500064F440968017910744F00E94BB2083FFED
:1023600004C080913C020E94AF0E80913C028130FB
:1023700029F0823031F406E012E005C001E011E0FE
:1023800002C000E010E0612E712CC12CD12C76012E
:10239000C394011708F467C0C12FD0E04E0186181E
:1023A00097088091340290E0082C02C0959587959B
:1023B0000A94E2F780FD02C082E001C083E0219729
:1023C000CC0FDD1FFE01E65FFF4E5F014491C75F4A
:1023D000DF4EFE01649150E070E00E94450A80915A
:1023E000370290913802FE01C491F8E0CF9FE001DE
:1023F0001124F501A490AC014E5F5F4F9E012E5E4B
:102400003F4F421753076CF521964096C817D907DE
:1024100044F58091350290913602F8E0AF9E50016C
:102420001124AC014E5F5F4F95012E5E3F4F421766
:102430005307BCF42FEFA21AB20A4096A816B906A9
:1024400084F40E94BB2083FF0CC040913402242FEF
:1024500030E0082C02C0359527950A94E2F720FF5A
:1024600064C51F5F96CF10913C021295107F1051EA
:10247000412C512C32014394FF24FA94812E912C4B
:1024800020913C0230E1239FC00111248816990657
:102490000CF0ADC043E0149F50011124F501E75545
:1024A000F04FC491F501E655F04FE4914097940147
:1024B000281B390B809102079091030702C0969563
:1024C00087952A95E2F780FF90C080912D02909128
:1024D0002E0258E0C59FE0011124AC01475051097C
:1024E0002091290230912A02F0E0C417D5072CF080
:1024F00042575F4F4C175D079CF4AF0173E0440FE8
:10250000551F7A95E1F7B9016750710946175707CA
:102510000CF46BC0625B7F4F641775070CF465C0E9
:102520001F0153E0220C331C5A95E1F7B101621BE5
:10253000730BC12CE12C01E020E030E040ED57E0CE
:10254000DE01A81BB90BCD010E94561A809102072B
:102550009091030720913C0230E02150310964E062
:10256000220F331F6A95E1F7821A930A9C01082C07
:1025700002C0369527950A94E2F720FF36C04091B5
:102580002D0250912E02C41BD50B209137023091A1
:102590003802241B350BA901405F5F4FC417D507D4
:1025A00024F528962C173D0704F5409129025091F7
:1025B0002A02F101E41BF50B20913502309136021D
:1025C000241B350BA901405F5F4FE417F5076CF43E
:1025D00038962E173F074CF42091040129502230E1
:1025E00020F42091330223FFC0C41F5F47CF223065
:1025F00069F02BEF822E21E0922EAA24A394B12C15
:10260000C0E0D0E01EE04CE1F42EE5C08FE9882E5A
:102610008FE0982EA12CB12C412C512C32014394E7
:102620001A2DF401C4913196E4918091010790E054
:102630000A2C02C0959587950A94E2F780FF99C00D
:1026400080912D0290912E02F8E0CF9FE00111249D
:10265000AC01475051092091290230912A02F0E043
:10266000C417D5072CF042575F4F4C175D079CF4F9
:10267000AF0103E0440F551F0A95E1F7B901675018
:102680007109461757070CF474C0625B7F4F6417DB
:1026900075070CF46EC01F01B3E0220C331CBA9511
:1026A000E1F7B101621B730BC12CE12C01E020E0CA
:1026B00030E040ED57E0DE01A81BB90BCD010E94D0
:1026C000561A40910107842F90E0012E02C0959583
:1026D00087950A94E2F780FF4CC020912D0230913B
:1026E0002E02C21BD30B8091370290913802821BBD
:1026F000930B9C01205F3F4FC217D307D4F5289658
:102700008C179D07B4F58091290290912A02F1015E
:10271000E81BF90B2091350230913602281B390B4A
:10272000C9014096E817F90724F538962E173F0798
:1027300004F58091040189508230D8F490913302DD
:1027400094FD17C090619093330210920201809122
:102750002F028F5F80932F02D301C20104C0880F24
:10276000991FAA1FBB1F1A95D2F7809584238093C7
:102770000107BFEFAB1ABB0AE2E08E0E911CF5E039
:10278000AF16B10409F04CCF34CFA0912D02B09117
:102790002E02E8E08E9FC0011124AD01475051097F
:1027A0002091290230912A0270E084179507ACF538
:1027B000AB01E3E0440F551FEA95E1F7F9013797C4
:1027C0004E175F0784F52196F2E0AF0EB11CCE30B4
:1027D000D10509F456C000913C02202F30E0215071
:1027E0003109129FF001139FF00D1124EC0FFD1F12
:1027F000EE0FFF1FEB5AFA4F8491F29EF001F39E09
:10280000F00D1124EA0DFB1DEB5AFA4F6491D4012F
:102810009D914D019923B9F2B8CF42575F4F4817A8
:10282000590734F4C5CFE25BFF4FE417F5075CF2BC
:10283000013011F002E101C00AE043E0660F771FAA
:102840004A95E1F7621B730BC12CE12C20E030E0CC
:1028500040ED57E08A1B9B0B0E94561AB4CFD8015B
:10286000AD90BC901197A114B10499F40C5F1F4F67
:10287000B1E0043F1B0799F78091E10681508093F6
:10288000E1068091E106882309F47EC00CE411E0A2
:10289000E6CF12968D909C90139780912D02909187
:1028A0002E029C0127503109A216B3062CF089573D
:1028B0009F4F8A159B057CF48091290290912A02F2
:1028C0009C01275031098216930684F2895B9F4F41
:1028D000881599055CF265E070E080E090E00E9468
:1028E0001620633071058105910509F0BFCF8091F5
:1028F00032028823C1F08091F4019091F5014B964A
:102900008815990584F061E070E080E090E00E9415
:102910001620DC01CB010196A11DB11D3401680E0A
:10292000791EE5011CC065E070E080E090E00E9447
:102930001620DC01CB010297A109B109E501C80FFE
:10294000D91F65E070E080E090E00E941620DC0175
:10295000CB010297A109B1093401680E791EB401B7
:10296000CE010E94170D811103C0F801D183C083ED
:10297000B301C5010E94170D811178CFD8011396BC
:102980007C926E92129772CF81E08093E106CCE444
:10299000D1E05E0183E0882E912CD501ED91FC9170
:1029A0001197309709F456C012962D913C911397C8
:1029B00060902D0270902E02C3010797E817F90767
:1029C0002CF082579F4F8E179F077CF4809129022D
:1029D00090912A02AC014750510924173507D4F1D0
:1029E000895B9F4F82179307ACF180913C02813045
:1029F000D1F48091770690917806B4010E94A430BA
:102A0000892B19F087E009E002C086E008E04091D8
:102A1000290250912A02B901641B750BC12CE82EC2
:102A20002DE835E010C08230A9F40091F801005F74
:102A30008091290290912A02B901681B790BC12C5F
:102A4000E12C20E030E040ED57E0CF0186199709F6
:102A50000E94561AB4E0AB0EB11CE4EFAE16E1E0F2
:102A6000BE0609F09ACF0091330200FD1BC0109101
:102A700007011123B9F060913502709136026E5F43
:102A80007F4F80913702909138022EE04EE00296FF
:102A90000E94E30A882331F0016000933302115051
:102AA00010930701A0913C028A2F90E001974EE01D
:102AB000489F9001499F300D11246CE1689FA0014F
:102AC000699F500D11247091310260E0BBEA88814A
:102AD0009981892BA1F56B9F812D1124869590E01A
:102AE000FC01E550FE4FE081EE2349F1EA81FB81D4
:102AF0003196FB83EA83EC38F10524F4A230F9F433
:102B0000F297ECF0FC01E20FF31FEE0FFF1FEB5A00
:102B1000FA4FE49118E0E19FF0011124F983E88372
:102B2000FC01EE0FFF1FE40FF51FEA5AFA4FE49184
:102B300088E0E89FF0011124FB83EA837F5F6F5FE9
:102B400024966A3209F0C3CF70933102CCEED6E0FE
:102B500012EEA12E16E0B12E812C912C412C512C7D
:102B600032014394382C182D888199818033954700
:102B700009F05DC0832D0E94470C882309F455C0DD
:102B800060912B0270912C0277FF02C0695F7F4F2A
:102B9000B3E075956795BA95E1F7615071096230B8
:102BA000710594F0CB01770FAA0BBB0BBC01CD01D3
:102BB00061507109810991090E941620DC01CB0145
:102BC0000196A11DB11D04C081E090E0A0E0B0E03D
:102BD000F5018083609127027091280277FF02C07F
:102BE000695F7F4FA3E075956795AA95E1F76150FE
:102BF00071096230710594F0CB01770FAA0BBB0B02
:102C0000BC01CD0161507109810991090E94162012
:102C1000DC01CB010196A11DB11D04C081E090E053
:102C2000A0E0B0E0F5018183A5CF198218828881E8
:102C300099819C0197FF02C0295F3F4FF3E03595D2
:102C40002795FA95E1F7D5014C9150E06A817B8197
:102C50002417350709F0C3C09B0177FF02C0295F25
:102C60003F4FE3E035952795EA95E1F7F50141817E
:102C700050E02417350709F0B2C0832D0E94470C9D
:102C8000882309F458C06CE070E080E090E00E9476
:102C90001620DC01CB010697A109B109F5012081BD
:102CA000622F680F608366E070E080E090E00E9431
:102CB0001620DC01CB010397A109B109F50121819F
:102CC000622F680F61838081F8E08F9FC00111241B
:102CD00020912B0230912C02275031098217930743
:102CE0009CF428E0629FB0011124209127023091CA
:102CF0002802275031096217730734F4089724F02B
:102D0000683071050CF0B9CF8881998197FD0796DD
:102D100053E0959587955A95E1F7D5018C938A8173
:102D20009B8197FD079643E0959587954A95E1F736
:102D3000F5018183A2CF0091F8018091000790E016
:102D4000012E02C0959587950A94E2F7F82FF1704D
:102D5000CF2E39E0E32EE00E045F6A817B81809103
:102D6000290290912A02681B790B88819981E09150
:102D70002D02F0912E022DE835E040ED57E08E1B3C
:102D80009F0B0E94561A67E270E080E090E00E947C
:102D90001620DC01CB010196A11DB11D823081F00E
:102DA0008330B1F5D301C20104C0880F991FAA1F57
:102DB000BB1F1A95D2F780959091000789230CC00C
:102DC000D301C20104C0880F991FAA1FBB1F1A9507
:102DD000D2F720910007822B8093000719C0009141
:102DE000F8012BE0E22EE00E025F209129023091E3
:102DF0002A02621B730BE0912D02F0912E02C12C6E
:102E00002DE835E040ED57E08E1B9F0B0E94561ACF
:102E100088819981D5012C91B8E02B9F90011124D4
:102E2000821793071CF4019699838883888199817E
:102E3000281739071CF40197998388838A819B811D
:102E4000F5012181F8E02F9F90011124821793074B
:102E50001CF401969B838A838A819B8128173907FA
:102E60001CF401979B838A831FEF811A910A249691
:102E700022E0A20EB11C35E08316910409F072CE57
:102E800080913C028230A1F44CE050E06CE170E0B3
:102E900086E00E94450A44E150E06CE270E086E082
:102EA0000E94450A4EE050E06CE270E086E014C0FB
:102EB00046E050E069E170E080E00E94450A8091C0
:102EC000310243E050E062E370E0811104C0809180
:102ED0002F028823A9F084E0DF91CF911F910F91F9
:102EE000FF90EF90DF90CF90BF90AF909F908F902A
:102EF0007F906F905F904F903F902F900C94450A79
:102F000085E00E94450A80913702909138028058EE
:102F100091404C9708F066C080913502909136023E
:102F20000A974C9708F05EC04BC080912F02811128
:102F300004C083E00E94AF0E94CA101730F0011352
:102F400090CA9091310291118CCA815080932F02C6
:102F5000D701C60104C0880F991FAA1FBB1F8A94FE
:102F6000D2F7842B809334027CCA286020933302EA
:102F70001092020140913002F501E555F04F249185
:102F800030E0240F311D2F3F310521F01CF0F0926D
:102F9000300204C0E491E40FE0933002B301A201D7
:102FA00004C0440F551F661F771F8A94D2F74095BF
:102FB000509548235923509303074093020715CB9C
:102FC0000E94BB2083FF0EC00E94C11880912F0277
:102FD0008F5F80932F028091330280618093330250
:102FE00010920201DF91CF911F910F91FF90EF900E
:102FF000DF90CF90BF90AF909F908F907F906F9019
:103000005F904F903F902F9008952FB7F89483E0F2
:103010008093E9009091E800892F807295FF04C0A9
:103020009091F20080E4891B2FBF0895CF93DF9326
:103030001F92CDB7DEB76983DC01ED91FC91028070
:10304000F381E02D41E050E0BE016F5F7F4F0995B5
:103050000F90DF91CF91089583E08093E9008091F4
:10306000F200882319F08AE38093E80008950E9413
:10307000051890E008958F929F92AF92BF92CF92E1
:10308000DF92EF92FF920F931F93CF93DF936C0128
:103090007B018A0180911501882309F45CC080912D
:1030A0006902882309F457C08091670280FF05C038
:1030B0008091E00082608093E000E801B12C8AEF0B
:1030C000A82E93E0892E2AE3922E209711F4BB209C
:1030D000D9F10E94051881110AC0AA94AA20D9F139
:1030E00061E070E080E090E00E943020EECF282F79
:1030F00030E0C217D3070CF48C2F9FB7F89480925E
:10310000E9002091E80025FF1DC0282F30E0C21BF8
:10311000D30BF701815020F041914093F100FACF99
:10312000E20EF31EBB2019F09092E8000AC08091D5
:10313000E80085FD07C09092E800BB24B394209777
:1031400009F0B12C9FBFC1CF5D9884E680936602E1
:103150001016110644F081E090E0F601938382831B
:1031600080E090E001C0C801DF91CF911F910F91E5
:10317000FF90EF90DF90CF90BF90AF909F908F9097
:10318000089582E390E00E94B6200E94BB20811146
:10319000F8CF0895EEE6F2E0A0E0B8E000800EBCC3
:1031A0008111012C1197A0FDFDCF0192B9F70DB44B
:1031B0000895009769F0FC0101900020E9F731972C
:1031C000AF01481B590BBC018EE696E00C94C41F5E
:1031D00080E090E008950F931F93CF93DF938C01CD
:1031E000C0E0D0E0F801EC0FFD1F6491662341F0D0
:1031F0008EE696E00E942209892B11F02196F2CFEB
:10320000CE01DF91CF911F910F9108952F923F92A0
:103210004F925F926F927F928F929F92AF92BF92E6
:10322000CF92DF92EF92FF920F931F93CF93DF9392
:1032300000D000D000D0CDB7DEB76C017A836983AF
:103240001C821B821D821E8268E070E0CE01019606
:103250000E94E32001963C0168E070E0CE010196F7
:103260000E94E3208C0161E070E0CE0101960E9493
:10327000E32093012C0D3D1D37FD72C090E8C91667
:10328000D1040CF06DC098012F5F3F4F37FD68C02F
:103290005901E3E0B594A794EA95E1F72770332745
:1032A000232B19F09FEFA91AB90A582E2224239430
:1032B000412C00E010E0E12CF12C33243394EA148B
:1032C000FB040CF04DC088248394912C61E070E0E5
:1032D000CE0101960E94E320892B21F482E0880E22
:1032E000911CF4CFB401CE0101960E94E320019617
:1032F00020E030E02817390788F551104228220CC9
:1033000051F5A7014F5F5F4F49305105A8F4B60151
:10331000600F711F6038710578F4F701F695FE2F84
:10332000EE27F795E795EC0DFD1DE00FF11FE25933
:10333000FD4F6081462A40820F5F1F4F061517051B
:103340003CF07A0122242394412C00E010E003C0D9
:1033500022242394412C2F5F3F4FCCCF5324AFCF57
:1033600026960FB6F894DEBF0FBECDBFDF91CF918A
:103370001F910F91FF90EF90DF90CF90BF90AF9093
:103380009F908F907F906F905F904F903F902F9085
:10339000089580E0EEE6F2E081118FEF0024819342
:1033A0008193819381930394D1F708958F929F9293
:1033B000AF92BF920F931F93CF93DF93CDB7DEB73A
:1033C000A1970FB6F894DEBF0FBECDBF19A2423051
:1033D00008F44AE08E010F5D1F4F842E912CA12C22
:1033E000B12CA50194010E945E2EE62FB901CA01FD
:1033F00001501109EA3014F4E05D01C0E95CD80124
:10340000EC93232B242B252B61F7C8010E94D9189C
:10341000A1960FB6F894DEBF0FBECDBFDF91CF915E
:103420001F910F91BF90AF909F908F9008958F92B2
:103430009F92AF92BF92CF92DF92EF92FF920F9343
:10344000CF93DF936B01EC014C01840E911C5B0167
:10345000A20EB11CC815D905ECF47601D7FE02C046
:10346000E12CF12CC50121E4A216B10414F080E492
:1034700090E0E816F90664F4C038D10528F4402F2E
:10348000B701CE010E94CB208FEFE81AF80AEACFED
:103490002196E0CFDF91CF910F91FF90EF90DF90D9
:1034A000CF90BF90AF909F908F9008952F923F92B2
:1034B0004F925F926F927F928F929F92AF92BF9244
:1034C000CF92DF92EF92FF920F931F93CF93DF93F0
:1034D00000D000D01F92CDB7DEB74C2CFA01D490AB
:1034E0003196E4918D2C912CD401A80FB91F1A1696
:1034F0001B060CF01AC1803891050CF016C15B0157
:10350000AE0EB11C1A141B040CF00FC1603471050F
:103510000CF00BC16E2E669466946694E770CC2412
:10352000C394E11101C0C12CEC2DF0E0E60DF11DBA
:10353000E89D5001E99DB00CF89DB00C1124EA9C67
:103540001001EB9C300C11240A9DF0010B9DF00D35
:1035500011247B0177FF04C0EE24FF24E61AF70A4A
:103560000E2D0770702E7B0177FF03C017E0E10E70
:10357000F11C13E0F594E7941A95E1F7ED8277FFDB
:1035800008C0772031F06FEF6E0D6D8368E067192A
:10359000762E97FF05C066277727681B790B02C038
:1035A00060E070E0A038B10524F0A0E85A2E581A67
:1035B00001C05D2C561A0D81A02F002E000CBB0BF4
:1035C0000F3F1CF4BA2EB09401C0B12CC60CAC0D48
:1035D000B11D199724F0A8E0CA2E1D81C11A6D8073
:1035E0006B0CDC01062D10E80103A00DB11D1124A8
:1035F0007D01E60EF71EDB9C600D711D11244E5FF0
:103600005F4FE60FF71F4E0F5F1F620D731D620FB6
:10361000731FB42DB1703B2E40FE14C0A52DB0E039
:10362000FD0131974E0F5F1F6E0F7F1FF401EA1BE4
:10363000FB0B97FF03C0F195E195F1094E0F5F1F5A
:103640006E0F7F1F81E090E05C01072C02C0AA0C86
:10365000BB1C0A94E2F7D701A259BD4F0D810C0D96
:103660000D83852D90E06401C81AD90A880D991D33
:103670001D81611609F459C08D01412C541409F4BF
:1036800045C0FA0124902115310521F0FB01E49099
:10369000F12C03C0EE24EA94F12C2A9C40012B9CCF
:1036A000900C11249C828B82AE9CF001AF9CF00D9B
:1036B000BE9CF00D11247F01E094F094FA82E9821F
:1036C00067FC07C0F801F080EE2DEF218E2AF8018B
:1036D0008082772061F0F6E0F6154CF0F801E058B2
:1036E000FF4FE080FA80FE20EC80FE28F08233203D
:1036F00029F0415051096150710904C04F5F5F4F7B
:103700006F5F7F4F43940F5F1F4FB8CF6394332099
:1037100029F0480F591F680F791F04C04C0D5D1D1B
:103720006C0D7D1DA058BF4FA3CF0F900F900F9031
:103730000F900F90DF91CF911F910F91FF90EF901D
:10374000DF90CF90BF90AF909F908F907F906F90C1
:103750005F904F903F902F9008958FB7F8944091CD
:103760006A0250916B0260916C0270916D028FBF82
:1037700080917C06942F981B80917D06882331F0E0
:1037800090937E0610927D0680E0089520917B063E
:10379000921740F49F5F9217A0F491E093BF889531
:1037A00013BE089581E080937D0640937C0680914E
:1037B0007706909178060196909378068093770625
:1037C00081E0089520916902211103C08FEF9FEFDE
:1037D00008955FB7F89422E02093E9002091F20069
:1037E00030E01216130614F421E030E0422FFC0101
:1037F00084E6415038F02898809368029091F10057
:103800009193F7CF2115310521F08091F2008823A3
:1038100019F05FBFC90108958BE68093E800F9CFE6
:10382000CF93DF931F92CDB7DEB7FC0184859585DA
:1038300097FD05C02FEF3FEF358724870BC0CE01E2
:1038400001960E94E21B019719F4898190E002C061
:103850008FEF9FEF0F90DF91CF91089580918306B6
:1038600081110DC082E080937F0684E08093800602
:10387000109282061092810681E0809383068FE782
:1038800096E00895FC018485958597FD0BC09FB750
:10389000F89482E08093E9008091F2009FBF90E06D
:1038A000019608959FB7F89482E08093E900809193
:1038B000F2009FBF90E008954091DE065091DF0630
:1038C0002091DC063091DD0642175307B4F4909145
:1038D000E8009570E1F39091E80092FD19C08093A3
:1038E000F1008091DE069091DF0601968F73992793
:1038F000892B19F48EEF8093E8008091DE06909179
:10390000DF0601969093DF068093DE0681E008953E
:1039100080E00895DF92EF92FF920F931F93CF9371
:10392000DF93D82E8A017B01E40EF51EEB01CE1544
:10393000DF0571F0D7FE03C0FE01849101C08881CC
:103940000E945C1C21968111F2CF8FEF9FEF01C086
:10395000C801DF91CF911F910F91FF90EF90DF9001
:103960000895615030F02091F100FC012083019610
:10397000F8CF289884E68093680208950F931F93E8
:10398000CF93DF931F92CDB7DEB78C01FC01848506
:10399000958597FF0EC0CE0101960E94E21B01970C
:1039A00019F4898190E002C08FEF9FEFF8019587AD
:1039B0008487F801848595850F90DF91CF911F91C1
:1039C0000F9108950F931F93CF93DF931F92CDB75D
:1039D000DEB782E0898342E450E066E771E180E887
:1039E0000E948A1C0E942E1CDC0112960D911C91D3
:1039F00013970115110589F0D801ED91FC91028012
:103A0000F381E02DBE016F5F7F4FC801099597FDDF
:103A100004C0F80100851185ECCF89810F90DF91FA
:103A2000CF911F910F9108951F920F920FB60F9291
:103A300011248F939F938091E1009091E100937FF7
:103A40009093E10083FF0FC01092E90091E0909302
:103A5000EB001092EC0092E39093ED00109269025B
:103A600098E09093F00082FF20C093E09093E900EB
:103A70009091F200992319F09AE39093E8009091C5
:103A80006602992339F090916602915090936602F4
:103A9000992389F190916802992339F090916802F5
:103AA000915090936802992341F184FF10C0809156
:103AB000E2008E7E81608093E2008091E1008F7E43
:103AC0008093E100809167028E7E806111C080FF4B
:103AD00016C08091E2008E7E80618093E20080912A
:103AE000E1008E7E8093E100809167028E7E81608E
:103AF0008093670204C05D9ACDCF289AD6CF9F915C
:103B00008F910F900FBE0F901F9018951F920F92DC
:103B10000FB60F921124CF92DF92EF92FF920F9384
:103B20001F932F933F934F935F936F937F938F9345
:103B30009F93AF93BF93EF93FF93CF93DF93CDB753
:103B4000DEB76C97DEBFCDBF1092E9008091E80030
:103B500083FFFBC168E0CE0145960E94B11C82EF55
:103B60008093E8008D8987FF05C09091E80090FF61
:103B7000FCCF03C09EEF9093E800982F907609F059
:103B8000C6C09E894F89588D2F89F88C91110CC021
:103B9000803829F48091DB068093F10002C01092F6
:103BA000F1001092F10045C1913051F4811141C1F1
:103BB0004130510509F03DC18091DB068D7F0BC07E
:103BC000933061F4811135C14130510509F031C1A3
:103BD0008091DB0682608093DB062BC1953049F42F
:103BE0008091E80080FFFCCF822F80688093E30003
:103BF00020C1963009F05EC00B8D1C8D22E0109222
:103C0000E9001092DF061092DE06F21232C0109226
:103C1000DD061092DC060E94E21C99E0BE016F5F97
:103C20007F4FDB01E92F1D92EA95E9F79983FA822C
:103C300091E09E8390EA98879AEF99872091DE061B
:103C40003091DF06275F3F4F3C832B838D8310929B
:103C5000E9001092DF061092DE061093DD06009355
:103C6000DC0649E050E080E00E948A1C0E94E21CD1
:103C7000E0C01093DD060093DC060E942E1CDC01E0
:103C800012960D911C9113970115110509F4BBC0F3
:103C9000D801ED91FC910480F581E02DBE016B5EB1
:103CA0007F4FC8010995009709F0C7C0F80100854A
:103CB0001185EACF973009F445C1983021F481E0AD
:103CC0008093F100B6C0993009F0B3C0837009F059
:103CD00039C1E3E4F1E081E031E096E32081211194
:103CE00009C08EE78093EA001092EA008F898093E2
:103CF00069029FC08093E9003093EB0021912093EB
:103D0000EC009093ED008F5F873041F7EACF8B8D09
:103D10009C8D1092E9001092DF061092DE069093BF
:103D2000DD068093DC06898D811153C08E899D89C3
:103D3000913A49F4813209F005C147E050E06EE064
:103D400071E080E0BBC0913209F0FCC0833269F4BD
:103D50008F89988DA0E0B0E08093160190931701B1
:103D6000A0931801B093190164C0803269F4809166
:103D7000E80082FFFCCF67E08EE091E00E94B11C7A
:103D80008BEF8093E80055C0823209F052C08F89D2
:103D900080931501EEEFFFE7859194918B3F9C4D49
:103DA00019F0E0E0F8E002C0EEEFFAE080910E01D9
:103DB00090910F01A0911001B0911101803B9440AE
:103DC000A105B10509F09EC08091150180FF79C061
:103DD00099C00E942E1CFC0102811381011511055E
:103DE00009F4B0C0D801ED91FC910190F081E02D73
:103DF000BE016B5E7F4FC801099581111AC0F801A1
:103E000000851185EBCFF1E0FF1609F44EC0F3E019
:103E1000FF1298C08F89882309F44AC0823089F440
:103E200040E867E08AED91E10E942F2D882309F494
:103E300089C08EEF8093E80088C018161906CCF36D
:103E400081C0813029F440E86BE08EEC91E1ECCF49
:103E5000833009F077C00E942E1CDC011296ED9091
:103E6000FC9013978E010F5F1F4F6801E114F1045E
:103E700079F0D701ED91FC910680F781E02DB80132
:103E8000C7010995080F111DF701E084F184EECFF9
:103E9000D8011C92F60101900020E9F73197BF018B
:103EA0006C197D0940E0C601BFCF6CEB71E102C027
:103EB00068EB71E1FB01449150E080E80E948A1CAC
:103EC000B8CFEE3F2AE0F20751F080819181873729
:103ED000A7E79A0721F09093FF0A8093FE0A87E7ED
:103EE00097E791838083809160008093E0069BE058
:103EF00088E10FB6F894A895809360000FBE909368
:103F0000600097CF808191818737974709F091CFE3
:103F1000A895809160008861809360008091E006A0
:103F200080936000EE3FBAE0FB0739F08091FE0A13
:103F30009091FF0A918380837CCF1092FF0A1092A8
:103F4000FE0A77CF81E28093EB006C960FB6F8946F
:103F5000DEBF0FBECDBFDF91CF91FF91EF91BF913B
:103F6000AF919F918F917F916F915F914F913F9111
:103F70002F911F910F91FF90EF90DF90CF900F90B6
:103F80000FBE0F901F901895CF92DF92EF92FF9285
:103F90000F931F93CF93DF936C017A018B01C0E0E5
:103FA000D0E0CE15DF0581F0D8016D918D01D601ED
:103FB000ED91FC910190F081E02DC6010995892BCE
:103FC00011F02196EECF7E01C701DF91CF911F91B5
:103FD0000F91FF90EF90DF90CF9008953FB7F89446
:103FE0008091050790910607A0910707B0910807F7
:103FF00026B5A89B05C02F3F19F00196A11DB11D44
:104000003FBFBA2FA92F982F8827820F911DA11D7E
:10401000B11DBC01CD0142E0660F771F881F991FBB
:104020004A95D1F7089508950E94D230CF92DF9239
:10403000EF92FF92611571058105910549F06B01C1
:104040007C010E94AF2DA70196010E942C2E03C077
:1040500060E070E0CB01FF90EF90DF90CF9008958B
:104060008F929F92AF92BF92CF92DF92EF92FF9288
:104070006B017C010E94EE1F4B015C01C114D10455
:10408000E104F104F1F00E94EE1FDC01CB0188197C
:104090009909AA09BB09883E9340A105B10570F3AF
:1040A00021E0C21AD108E108F10888EE880E83E009
:1040B000981EA11CB11CC114D104E104F10419F72C
:1040C000DDCFFF90EF90DF90CF90BF90AF909F90AB
:1040D0008F9008951F920F920FB60F9211242F9375
:1040E0003F938F939F93AF93BF9380916A02909178
:1040F0006B02A0916C02B0916D023091040723E035
:10410000230F2D3720F40196A11DB11D05C026E80F
:10411000230F0296A11DB11D2093040780936A020C
:1041200090936B02A0936C02B0936D02809105078F
:1041300090910607A0910707B09108070196A11D6D
:10414000B11D8093050790930607A0930707B093CE
:104150000807BF91AF919F918F913F912F910F9041
:104160000FBE0F901F9018952D9A0895BC0180E006
:1041700090E00C9430208FB18095807F669B8860A2
:104180001C9B846008950C94162E3E983F980895C9
:104190003E9A3F9A0895E6EEF1E190E1969FD001B4
:1041A000A0781124A80F6770E60FF11D9491A25911
:1041B000BD4F442319F08C91982B03C090958C919E
:1041C00098239C9308951F93CF93DF93DC0120E005
:1041D00030E040E050E011E0C1E0D0E026173707C2
:1041E00091F114968C911497811115C014961C931B
:1041F000149712968D919C911397ED91FC911197C4
:10420000E80FF91FE4911596EC9315970196139614
:104210009C938E93129714969C91149715968C915B
:104220001597892349F0FE01022E02C0EE0FFF1FF1
:104230000A94E2F74E2B5F2B990F14969C931497D8
:104240002F5F3F4FCBCFCA01DF91CF911F910895D0
:104250000F931F93CF93DF9340913C02242F30E0C4
:1042600021503109C901880F991FFC01EE51FE4E02
:10427000E49158E0E59FF0011124F0932C02E093C3
:104280002B02FC01ED51FE4EE49188E0E89FF00125
:104290001124F0932802E093270285E08093040123
:1042A00080930501109233021092FA01413039F4E3
:1042B00083E0809307011092300210922F028FEF5B
:1042C0009FEF90930307809302078093010788E391
:1042D000809331021092000710923402ECEEF6E067
:1042E000A2EEB6E080E097E060E375E7718360835B
:1042F000138212821C9211961C9211973496129678
:104300008E179F0799F74130E1F48CED90E0909380
:104310003802809337028CE390E0909336028093CA
:10432000350284EA90E090932E0280932D0284E27D
:1043300090E090932A0280932902EBEFF1E083E072
:1043400026C080E390E0909338028093370280E6A5
:1043500091E0909336028093350210922E021092D3
:104360002D0280E491E090932A028093290284E652
:104370008093320288E691E09093F7018093F601F2
:1043800088E190E09093F5018093F401D6CF81937A
:1043900092E0E930F907D9F74CE1429FC001439F11
:1043A000900D11248B5A9A4F20E030E0FC0164916B
:1043B000F8E06F9FB0011124FC013196E49148E0D0
:1043C000E49FF001112400271127021B130BD801D1
:1043D000A45BBE4F40E0E901CA0FDB1FC00FD11F35
:1043E000798368831396FC93EE9312974F5F14962C
:1043F000433089F702962C50310928355FEF350795
:10440000A9F684E18093E10684E090E090930E02A7
:1044100080930D02909314028093130290931A02DA
:10442000809319029093200280931F02909326029A
:1044300080932502DF91CF911F910F910895CF9323
:10444000DF93CDB7DEB7A3970FB6F894DEBF0FBEEC
:10445000CDBF789484B5826084BD84B5816084BD0D
:1044600085B5826085BD85B5816085BD80916E0012
:10447000816080936E001092810080918100826043
:104480008093810080918100816080938100809180
:104490008000816080938000809191008260809391
:1044A00091008091910081608093910080919000B3
:1044B0008160809390008091C10084608093C100EE
:1044C0008091C10082608093C1008091C1008160B1
:1044D0008093C1008091C30081608093C30080916C
:1044E000C00082608093C0008091C2008160809390
:1044F000C20080917A00846080937A0080917A0073
:10450000826080937A0080917A00816080937A0043
:1045100080917A00806880937A00109269021092EC
:10452000DB06109267028091D70081608093D700EC
:1045300080EA8093D80089B5806189BD89B58260A1
:1045400089BD09B400FEFDCF61E070E080E090E03D
:104550000E9430208091D8008F7C80618093D800A9
:104560008091E000807F8093E0008091E1008E7E6A
:104570008093E1008DE08093E200559A209A81ECCF
:1045800080937C0085B1806F85B984B1877E84B9C2
:1045900084B1876E84B95E9A5F988AB1806D8AB95A
:1045A000769A6E9881B3806F81BB899880B38D7045
:1045B00080BB80E58CBD81E08DBD85E090E00E94F0
:1045C000B6205F9A85E090E00E94B6205E985C98E5
:1045D000E4ECF1E084918EBD00000DB407FEFDCF48
:1045E000319601E0E13DF007A9F75C9A81E88093FC
:1045F00064008091650081608093650080E00E9486
:10460000CA180E94BB2087FF24C05C9885EA8EBD33
:1046100000000DB407FEFDCF5C9A2E982F982D98C0
:104620008091640080628093640081E083BF8895FC
:1046300013BEFCCF2D980E94BB208478843871F083
:104640000E94BB208471843131F188EC90E00E949B
:10465000B6200E94BB2082FDEDCF3AC00E94B4205C
:1046600088EC90E00E94B6202F9882E090E00E94B3
:10467000162E8F3F29F06FEF82E090E00E941E2EF1
:1046800084EF91E00E94B6202F9A0E94BB2084788C
:104690008438D9F3D5CF0E94B42088EC90E00E94F2
:1046A000B6202E9882E090E00E94162E882329F0F2
:1046B00060E082E090E00E941E2E84EF91E00E9474
:1046C000B6202E9A0E94BB2084718431D9F3BDCFCD
:1046D0000E94B42082E090E00E94C320882319F059
:1046E0000E94C82002C00E94C52081E090E00E9484
:1046F000C320182F1470912E81FF81C011112E98A4
:1047000000EF1FEFE8E0EE2EF12C0E94BB2086FFA9
:1047100005C02E9A2F9A0E94B42071C0992029F0CA
:104720000430110511F42E9A2F9881E00E94CA18C6
:10473000980117FF04C022273327201B310B277055
:104740003327C80117FD079673E0959587957A95ED
:10475000E1F717FF05C00197A701421B530B9A0110
:10476000AC015695542F44275795479542595D4FB4
:1047700060E070E03701621A730A8F3FAFEF9A076B
:104780004CF40196685A7F4F40585F4F603B71056B
:10479000A1F71EC06A01B4E9CB0ED11C5A01A0E0FA
:1047A000B0E08F3FEFEF9E0709F4E1C6FD01E60F91
:1047B000F71FEC5EFE4FE491F0E02F01022E01C0E6
:1047C000440C0A94EAF7F50184884828448ACFC645
:1047D00080E00E94CA188FE090E00E94B6200F5F30
:1047E0001F4F0931110509F090CF992011F02F9A30
:1047F0002D9880E991E00E94B6200E94B4200E948A
:10480000C118109290008AE0809391001092C0002D
:1048100088E08093C1001092C3001092BF001092F4
:10482000CF0082E090E00E94C320882321F081E045
:104830008093080102C01092080180E190E00E947C
:10484000C32080933902823010F0109239020E9406
:10485000AD1B882309F483C60E94C91980913B02CD
:10486000882331F0815080933B02882309F4A0C64D
:1048700080913A02882331F0815080933A02882354
:1048800009F499C680910D01882359F0813089F48B
:104890002EE144E853E06EE186EB93E00E94470E80
:1048A00008C010923B021092900010923A021092AF
:1048B000C0008FEF80930D0180913C02811116C0E2
:1048C00010920D010E94BB2083FF90C680910C01C5
:1048D000813009F08BC680910B01813009F086C6CA
:1048E00090910A01933208F069C680C60E949F1019
:1048F00080913C02823009F015C12091370230913D
:104900003802C90189509140873E910508F00AC1DB
:104910008091350290913602AC01495051094B35D6
:10492000510508F0FFC010923402F090F801109188
:104930003202A090F601B090F7016090F4017090FF
:10494000F501112309F45DC0BC016E5F7F4FF501D5
:1049500032966301B2E0CB0ED11CD5019096A9012D
:104960004E5F5F4F4A175B07ECF4205F3F4FE21743
:10497000F307C4F49301205F3F4F6217730794F469
:104980004096C816D90674F48091330280FD0AC09F
:1049900081608093330280910701882319F0815050
:1049A0008093070180917706909178066CE370E020
:1049B0000E94A430009731F5ECE4F1E020813181D0
:1049C000232BC9F4DC01AA0FBB1FA45BBE4F9501CA
:1049D000205F3F4F2D933C93FC01EE0FFF1FE25BE6
:1049E000FE4FC301409691838083809131028F5F97
:1049F0008093310207C00296349684359105F1F612
:104A000001C0F12C8091290290912A022301481AB9
:104A1000590A80912D0290912E024501881A990A17
:104A2000C12CEF2C0F2D21ED31E041E152E0B2011C
:104A3000C4010E94561ACC24C39421ED31E041E117
:104A400052E0B201C40140960E94561A11112CC0C6
:104A50008091250290912602049731F58091010101
:104A6000813210F591E0909303019501280F311DDB
:104A70003093220220932102909100019301290F8B
:104A8000311D3093240220932302109226021092AB
:104A90002502945090930001911106C090E19093EB
:104AA000000184508093010180910101823218F04D
:104AB0008AE080930301112349F000E025E044E3FC
:104AC00062E070E08BE490E00E94171A169501E016
:104AD00023E0412F63E070E08EE790E0811B9109B5
:104AE0000E94171A80913D0281110FC0C5010197E4
:104AF0009093F7018093F601B3010E94CC0B8823B9
:104B000089F081E080933D020DC0C501019690932C
:104B1000F7018093F601B30180960E94CC0B8111BE
:104B200010923D02E0903702F090380280912D0201
:104B300090912E029701281B390B2933310574F00F
:104B400020912B0230912C022058310982179307B3
:104B50002CF4019690932E0280932D0280912D02C9
:104B600090912E029701281B390B2833310544F40C
:104B7000181619062CF4019790932E0280932D029B
:104B800000913502109136028091290290912A02FB
:104B90009801281B390B2931310574F02091270227
:104BA0003091280220543109821793072CF4019682
:104BB00090932A02809329028091290290912A02DF
:104BC0009801281B390B2831310544F418161906B1
:104BD0002CF4019790932A02809329028091070177
:104BE000811103C09BE090930501D0900501D09204
:104BF0000401882309F4F9C00E94BB2085FF18C076
:104C000087EF8D0D8230A0F0C70101979093380295
:104C1000809337020E94A70D882321F0F09238027A
:104C2000E092370282E08093040186E080930501E0
:104C30000E94BB2086FF1DC08091040189508230F4
:104C4000C0F0E0903702F0903802C70101969093CF
:104C50003802809337020E94A70D882321F0F0923A
:104C60003802E092370281E08093040185E080936E
:104C700005010E94BB2087FF19C080910401895063
:104C80008230A0F0C80101979093360280933502DC
:104C90000E94A70D882321F010933602009335025D
:104CA00083E08093040187E0809305010E94BB208C
:104CB00084FF1DC08091040189508230C0F00091B2
:104CC000350210913602C801019690933602809306
:104CD00035020E94A70D882321F01093360200931D
:104CE000350284E08093040188E0809305010E94EE
:104CF000BB2083FF06C0809104018550843008F4F6
:104D0000B6C50E94BB2083FD07C08091050197EFC7
:104D1000980F923008F4B6C50E94BB2082FFB8C538
:104D2000E0903302E2FCB4C580913002882309F49C
:104D3000AFC52AE040E951E06AE084E690E00E94D5
:104D4000470E80910401982F9B7F009137021091AC
:104D50003802923009F0AEC5F2E0FF2E843009F43B
:104D6000B7C5883009F4B4C58E2D846080933302B2
:104D70000E94BB2082FF90C5FF20B9F1AEE3B2E0F4
:104D800080E090E0FC01339616962D913C911797A8
:104D9000232B09F086C5DC01AA0FBB1FA25CBD4F07
:104DA0000D931C93DC01AA0FBB1FA05CBD4F20918B
:104DB0003502309136022C5F3F4F2D933C93880F84
:104DC000991FDC01AE5BBD4F8F2D90E08D939C93BE
:104DD000EE0FFF1FE25CFD4F06E410E0118300833D
:104DE000809130028150809330026EE3A62E62E003
:104DF000B62EE9E0F2E0FE8BED8B4F011F8AD50164
:104E000016962D913C911797121613060CF048C177
:104E100014964D915C9115978D919C91119741300D
:104E2000510521F402968D939C931DC0423051058B
:104E300029F40297F5019183808315C0D50112965C
:104E40008D919C9113974330510531F4029713963D
:104E50009C938E93129707C04430510521F402961B
:104E6000F5019383828322503109D50117963C9333
:104E70002E93169712966D907C901397209029028E
:104E800030902A024D905C90E0912D02F0912E021C
:104E9000F98FE88FB3016450710962197309C20177
:104EA0000497C12CEE24E39403E02DE835E040EDB7
:104EB00057E08E1B9F0B0E94561AB301C2010E943D
:104EC000170D882379F0D40111965C924E921396B7
:104ED0007C926E92129715961C921E921497F50171
:104EE0001782168280913C0290E00197FCE1F89FC6
:104EF000B001F99F700D1124EBEF6E2EE1E07E2ED4
:104F000040E050E02A01D301DD903D014F5F5F4F4B
:104F1000DD20B1F1FB01EB5AFA4F7F010491F8E07B
:104F20000F9F80011124CB018A5A9A4FFC012491D2
:104F3000D5010D90BC91A02DBB8FAA8FFD01349699
:104F40000E171F07ECF4085F1F4F3897E017F107A3
:104F5000BCF4B8E02B9F90011124D5011296ED917D
:104F6000FC9113978F010C5F1F4F2017310744F4FA
:104F7000285F3F4F08501109021713070CF4F6C4BD
:104F80004F8B6E5F7F4F4E30510509F0BBCFF5015F
:104F90004281538160817181ACE4B1E080E090E0B6
:104FA000088D198D075011091BA30AA39B012250DC
:104FB00031093B8F2A8FFB013496FD8FEC8F8A01DC
:104FC000025011091F8F0E8F9A012C5F3F4F39A39A
:104FD00028A3210137E0431A5108E7E42E0E311CC3
:104FE000688C798CF7E86F0E711C2D913C911197AC
:104FF00021153105D9F16C010FEFC01AD00A1296B4
:10500000ED91FC9113970AA11BA1201731071CF009
:105010006216730634F4E415F50544F12E163F06C6
:105020002CF1790118E0E10EF11C0A8D1B8D0E1593
:105030001F05E4F4790112E0E10EF11C0C8D1D8DC9
:10504000E016F1069CF47F0118E0E10EF11C0E8DD4
:105050001F8D0E151F0554F47F0112E0E10EF11CA7
:1050600008A119A1E016F1060CF439C414960296B1
:105070008435910509F0B9CF8091F6019091F7013F
:10508000FC01B0969B01225031092E173F0744F4D2
:1050900002969B012C5F3F4F821793070CF43FC48D
:1050A00018E0A10EB11C26E0820E911C36E6A31674
:1050B00032E0B30609F0A3CE1AE0AD89BE8914969A
:1050C0008D919C911597843091050CF042C052E06F
:1050D000E52EE80E04E0080F12966D917C9113976F
:1050E000645071098091290290912A02681B790B02
:1050F0008D919C910497E0912D02F0912E02C12C8C
:105100002DE835E040ED57E08E1B9F0B0E94561AAC
:1051100010933B02B0E4B0939000E7EAF1E6F0931D
:105120009900E09398006091030170E08091770608
:10513000909178060E94A430892B59F4AD89BE89DC
:1051400014968D919C911597019615969C938E932C
:105150001497ED89FE893696FE8BED8BE752F2406F
:1051600009F0ABCF2091330220FF1DC0809177065C
:105170009091780663E070E00E94A430892B99F446
:105180008091FA018F5F8093FA018E3129F42E7F8E
:10519000209333021092FA018091330281FFDCC325
:1051A0008D7F80933302B0903302B1FCC7C0E09191
:1051B00004018E2F90E0FC013197EB30F10508F0EF
:1051C000D0C3EA5AFF4F20913702309138026091E4
:1051D000350270913602A0912902B0912A024091C5
:1051E0002D0250912E020C94CC308091F80114E0E5
:1051F000180F24E083C08091F80114E0180F24E018
:1052000078C08091F80116E003C08091F80118E0A1
:10521000180F25E06EC08091F8019091F90123E00C
:1052200013E006C08091F8019091F90122E012E0AC
:10523000892B09F060C062C01091F801212F5EC077
:105240001091F801212F55C00091F8011AE0100FBC
:10525000045F6A1B7B0B61507109C901841B950BAC
:10526000C12C47E0E42E23E532E043E753E00D96FE
:105270000E94561A809177069091780669E070E056
:105280000E94A430892BA1F52AE048E250E06AE0B0
:1052900088E290E00E94470E2BC00091F8011AE0CE
:1052A000100F045F6A1B7B0B61507109C901841BDD
:1052B000950BCC24C39437E0E32E23E532E043E79B
:1052C00053E00D970E94561A8091770690917806C8
:1052D00069E070E00E94A430892B09F045C32AE000
:1052E00048E250E06AE088E290E00E94470E3CC34A
:1052F00026E01F3F11F0D12C03C02FEFDD24D39403
:1053000060913502709136028091290290912A02B3
:10531000681B790B8091370290913802E0912D0241
:10532000F0912E02CD2CE22E012F23E532E043E74F
:1053300053E08E1B9F0B0E94561A02C025E0D22E0E
:1053400080917706909178066AE070E00E94A43020
:10535000892B89F48091F8019091F901019729F442
:105360001092F9011092F80106C021E030E030936C
:10537000F9012093F801B3FC06C0B4FE07C018E0A1
:105380001F8BD12C03C01F8A92E0D92E10910201ED
:105390001E31D0F56091350270913602685F7F4F03
:1053A0008091290290912A02681B790B611B710977
:1053B00080913702909138020896E0912D02F09189
:1053C0002E02C12CEF880D2D2DE835E040ED57E081
:1053D0008E1B9F0B0E94561A80917706909178063B
:1053E00063E070E00E94A430892B41F42AE044EF8E
:1053F00051E06AE080E590E00E94470E82E0F82EDE
:10540000F10EF092020104C08B2D877E809333024F
:1054100000E029E041E360E070E080E090E00E947D
:10542000171A65EF75E080E090E00E9406198AE0A7
:1054300080937206109273066091070170E080E01D
:1054400090E04AE00E94D61986E18093720610929D
:1054500073066091300270E080E090E04AE00E94C4
:10546000D6198CE2809372061092730660912F0217
:1054700070E080E090E04AE00E94D6198091070138
:10548000811143C08091060181112BC00E94C70A7F
:10549000109206010E94BB2083FF3AC00E94C919E6
:1054A00064E176E080E490E00E94061910927206B2
:1054B0008EE180937306E0913902F0E0EE0FFF1F5A
:1054C000E05FF94F859194910E94EB1889E491E097
:1054D0000E94D9180E94A40E10923C02109233022E
:1054E00017C000EA1FE024E1A8016AE0C8010E9499
:1054F000470E015011090E311105A9F710920D0147
:105500000E94BB2083FDFCCFC1CF81E080930601C8
:1055100080913C02813049F48091340280FF05C0C3
:1055200082E080933C020E94282180913C028230DC
:1055300099F48091320281110FC080913102811162
:105540000BC00E94C70A0E94A40E84E00E94AF0E06
:1055500010923C021092330280E00E94CA1880E050
:1055600090E0892B09F473C90E94000070C92115CD
:10557000310591F0FD01E60FF71FEC5EFE4FE4915F
:10558000F0E02F01062C02C0559447940A94E2F7EC
:10559000F6018080482840821196FFEFCF1ADF0A7B
:1055A000EFEFAE1ABE0AA835B10509F0FAC8E9C88E
:1055B000109290005DC91092C00064C980930D01E3
:1055C00080933C020E9428210E94C11860917706B6
:1055D0007091780680E090E0611571058105910574
:1055E00011F00E94FD2D10920D01B6CF0E94BB203C
:1055F00086FF05C080910A01833208F017C10E941E
:10560000BB2085FF04C080910C01823000F50E9410
:10561000C91901E02BE045E265E370E088E490E021
:105620000E94171A00E029E043E266E370E089E493
:1056300090E00E94171A90910A018EE6891B8093D0
:10564000720687E38093730600E010E014C0909127
:105650000B018913DCCF815080930B012EE142E5D1
:1056600053E06EE182E593E00E94470E0E94BB206A
:1056700085FDFCCFCCCF80913902F80123E0829FD9
:10568000E00DF11D1124EE0FFF1FE153F54F659161
:105690007491CE0101960E94062ECE0101960E94C1
:1056A000D9180F5F1F4F0330110529F700E020E4E0
:1056B0004FE762E370E08DE690E00E94171A20E465
:1056C00048E468E270E080E090E00E94171A6AE720
:1056D00078E080E090E00E94061980917706909132
:1056E000780665E070E00E94A430892B29F480914F
:1056F00009018F5F8093090110910C018EEF810FDA
:105700008230A8F4909109019370CC24C3942BE0CB
:10571000E22E0BE020ED37E0A90167E370E0E0E462
:10572000F0E0DF01A91BB109CD010E94561A8FEFED
:10573000810F823088F480910901837090E0C12C40
:10574000E12C0BE020E030E040ED57E067E370E053
:1057500083599F4F0E94561A80910A01833218F490
:105760008E5F80930A0100910B0180910A0110174E
:1057700010F48E5F03C0011718F4825080930A0161
:1057800080910A0190E0019664E270E00E94B830D6
:10579000892B11F400930C010E94BB2083FF19C0D8
:1057A00080910C018230A9F4023099F481E0809359
:1057B0000D010E94C118809139028F5F823009F07B
:1057C0004EC0109239026091390280E190E00E944F
:1057D0001E2E0E94BB2083FF1BC080910C018330D2
:1057E000B9F480910B01833099F411E010930D010D
:1057F0000E94C118809108018823A1F1109208012C
:105800000E94C5206091080182E090E00E941E2E57
:10581000809108018111A0CE00E028E043E067E21A
:1058200070E087E790E00E94171A96CE80910C01F5
:10583000833008F0E4CE90910B018913E0CE8F5FA6
:1058400080930B012EE144E853E06EE184E893E09D
:105850000E94470E0E94BB2086FDFCCFD0CE8093D5
:105860003902B1CF109308010E94C820CBCF80919C
:1058700005018650823010F48AE001C089E08093EF
:10588000040103C08A30A1F486E08093050144CA74
:1058900000E010E0F12C6CCA8091330282FD1BC045
:1058A0006BCA049618968431910509F06BCA9DCA9B
:1058B00085E0EBCF085F1F4F913021F0933029F046
:1058C000F12C4CCAFF24F3944FCAE3E0FE2E4CCADD
:1058D00074E0F72E49CA8B7F809333024DCA880F3C
:1058E000991FDC01A45BBE4F1D921C92D601AA0F2A
:1058F000BB1FA45BBE4F1D921C9280913102815050
:10590000809331023093220220932102F0932402EB
:10591000E0932302109226021092250266C0809125
:10592000F4019091F501FC0170969A012250310921
:105930002E173F070CF0B4CB02962A5F3F4F821719
:1059400093070CF0ADCB80913202882309F4A8CBE9
:1059500081508093320249C0826023CC28E01EE04F
:10596000CACC2FEF1FEFCACC26E0C8CC0A8D1B8D06
:10597000D40111961C930E931396FC93EE931297F9
:1059800015961C921E921497D50117961C921E9282
:105990001697DA94F201E550FE4FD082D11022C062
:1059A00020913102215020933102F701E490F8E078
:1059B000EF9E7001112404E0E00EF11CD401179653
:1059C000FC92EE921697FC018491F8E08F9FC00143
:1059D0001124049619969C938E9318971B961C92EB
:1059E0001E921A971FE01F8BD2CAF4017183608345
:1059F0005383428315821482D50117961C921E92FE
:105A000016974ECBEBE8F6E01382128288EE93E015
:105A1000A0E0B0E084839583A683B78382E291E01F
:105A2000918380838FEF9FEF95878487E4E7F6E08B
:105A300084E391E0918380831582168280E18783DD
:105A4000148213821186EEE6F6E086E0DF011D92F5
:105A50008A95E9F78AE391E0918380830895DF9244
:105A6000EF92FF920F931F93CF93DF93D82EF92ECF
:105A7000E42E062F10E0C8010196880F0E945C1CDE
:105A800083E00E945C1CCD2DDF2D0C0F1D1FC01765
:105A9000D10789F0E7FE03C0FE01849101C088812F
:105AA0000E945C1CF82E80E00E945C1C8F212196D5
:105AB0008111EDCF01C081E0DF91CF911F910F9156
:105AC000FF90EF90DF9008958F929F92AF92BF92D8
:105AD000CF92DF92EF92FF92CF93DF93EC01688138
